:0E0C0900120C301209B0120BA7120C1780FB50
:1007430011473F065B4F666D7D077F6F777C395E90
:03075300797100B9
:0605A0008B5E8A5F89609A
:1005A600E4F561ED14F562F561E561C39408507BED
:1005B600E561B40800504D9005C4F828287302057B
:1005C600DC0205E00205E40205E80205EC0205F49A
:1005D6000205FC020604D2A4800ED2A48012D2A484
:1005E6008016D2A4801AC2A4D2A3D2A28016C2A414
:1005F600D2A3C2A2800EC2A4C2A3D2A28006C2A463
:10060600C2A3C2A2C3E5619562FFE49400AB5EAAF1
:100616005FA9608F82F5831208A2F5807F647E0051
:0B062600120C25E4F58005610205AF11
:0106310022A6
:0307560001730329
:10083700AE07ED7005C374079FFEEEB40800505273
:1008470090084EF828287302086602086A02086EA4
:1008570002087402087A02088302088C020890D200
:10086700908031D2908002C290D2918029C290D2DA
:10087700918004C290C291D292C29322C290C29137
:10088700D292D29322C2908002D290C291C292D2C7
:0A0897009322C290C291C292C29354
:0108A1002234
:100A13008F5F8D60120A657FA01208F5120AADAFD1
:100A23005F1208F5120AADAF601208F5120AAD1293
:090A33000B287F0A7E00020AEE86
:0209E3008F5E25
:1009E500E4F55F120A657FA01208F5120AADAF5E45
:1009F5001208F5120AAD120A657FA11208F5120A4E
:0D0A0500ADE4FF1209368F5F120B28AF5FC2
:010A120022C1
:100A6500D2A07F017E00120C25D2A17F017E00124B
:100A75000C25C2A07F017E00120C25C2A17F017E3C
:040A850000020C253A
:100B2800C2A07F017E00120C25D2A17F017E001297
:0B0B38000C25D2A07F017E00020C25DE
:100B7900C2A1C2A07F017E00120C25D2A17F017EF5
:070B890000120C25C2A1229D
:100B9000C2A1D2A07F017E00120C25D2A17F017ECE
:070BA00000120C25C2A12286
:100AAD00E4F561D2A17F01FE120C2530A00F056186
:100ABD00E561D3946440F4120B287F0122C2A17F1B
:010ACD000028
:010ACE002205
:0208F5008F6111
:1008F700E4F562C2A1F562E5615480D39400400437
:10090700D2A08002C2A0E56125E0F5617F017E00EB
:10091700120C25D2A17F017E00120C25C2A17F01F6
:0E0927007E00120C250562E562C3940840C9EB
:01093500229F
:020936008F60D0
:10093800E4F561F562F561C2A17F017E00120C2524
:10094800D2A1E56225E0F56230A00205627F017E52
:1009580000120C250561E561C3940840DAE5607072
:0B09680005120B908003120B79AF62A8
:010973002261
:0907590001721001701001711011
:10046E00755E1075900F30B00930B10630B20320B2
:10047E00B31F7F0A7E00120AEE20B0037F66222091
:10048E00B1037F652220B2037F672220B3037F680A
:10049E0022E590640F60627F0A7E00120AEEE590FC
:1004AE00640F6055E590B40705E4F55E801CE59099
:1004BE00B40B05755E018012E590B40D05755E02F4
:1004CE008008E590B40E03755E037590F0E590B468
:1004DE007005855E5E801DE590B4B00474048010D6
:1004EE00E590B4D00474088007E590B4E006740C6F
:0B04FE00255EF55EE590B4F0FBAF5EFC
:0105090022CF
:10050A00E569600302059CE5671208CF055E0805E8
:10051A004F0C05860D054A16055418058119056301
:10052A001C058B40056D42059043059544057C45A5
:10053A0005774A05725205685A05595E0000059FFB
:10054A00E4F57180497571018044757102803F75C7
:10055A007103803A75710480357571058030757143
:10056A0006802B75710780267571088021757109BF
:10057A00801C75710F801775710D801275710E8050
:10058A000D75716580087571678003757168756985
:06059A0001227571102220
:100762000820010203040506070808180101010117
:10077200010101010808000000000000000008104B
:0807820000000000000000006F
:100BBD00E4FF74102FF8E4F674082FF8E4F60FBF75
:020BCD0008F02E
:010BCF002203
:100B4300E4FF7E0174182FF8E6FD74082FF8E66DB4
:0A0B53006002E4FE0FBF08ECAF06DD
:010B5D002275
:100A8900E4FF7E0174202FF8E6FD74082FF8E6FCD8
:100A99006D600A74182FF8E66C6002E4FE0FBF0857
:030AA900E3AF06B2
:010AAC002227
:100BD000E4FF74102FF8E6FE74182FF8A6060FBF76
:020BE00008F01B
:010BE20022F0
:10038000120ACF12046E8F7212050AE57264686059
:100390000BE570640C6005E571B46804757010229B
:1003A000E572640F600BE570640F6005E571B40FD2
:1003B0000C757010120BD0120B5E020ACFE572643E
:1003C0000E600BE570640E6005E571B40E06757085
:1003D00010120ACFE572640D600BE570640D6005C4
:1003E000E571B40D0675701012000EE572C3940A23
:1003F000400CE570940A4006E571940A5062E5717C
:100400006410601774472571F8E6FF742B2546F8D1
:10041000A60774102546F8A671801BE5706410606D
:100420001A74472570F8E6FF742B2546F8A6077462
:10043000102546F8A670757010801874472572F85C
:10044000E6FF742B2546F8A60774102546F8A67219
:100450007572100546E546B40906E4F546120ACF62
:0E0460007B007A00792B7D011205A002038338
:100BE300E4FF74102FF8E6FE74202FF8A6060FBF5B
:020BF30008F008
:010BF50022DD
:10028F00120ACF12046E8F7212050AE5726468604B
:10029F000BE570640C6005E571B46804757010228D
:1002AF00E572640F600BE570640F6005E571B40FC4
:1002BF000C757010120BE3120B0C020ACFE572646F
:1002CF000E600BE570640E6005E571B40E06757077
:1002DF0010120ACFE572640D600BE570640D6005B6
:1002EF00E571B40D0675701012000EE572C3940A15
:1002FF00400CE570940A4006E571940A5065E5716B
:10030F006410601A74472571F8E6FF742B2546F8C0
:10031F00A60774102546F8A6717571108038E57020
:10032F006410601A74472570F8E6FF742B2546F8A1
:10033F00A60774102546F8A67075701080187447BC
:10034F002572F8E6FF742B2546F8A607741025468C
:10035F00F8A6727572100546E546B40906E4F5462F
:10036F00120ACF7B007A00792B7D011205A00202C1
:01037F0092EB
:10078A00082B4040404040404040023B7D3F0146EC
:10079A000008330000000000000000012800083DA6
:0F07AA00CEEEB6B60000000001450002290BB8E4
:100ACF00752B40752C40752D40752E40752F407538
:0F0ADF003040753140753240120BBDE4F54622B0
:1006BE00120BF6E574606C75F00A842447F8E6F5C3
:1006CE0033E57475F00A84744725F0F8E6F5347B4B
:1006DE00007A0079337D011205A012046E8F72E547
:1006EE0072B41006E570641060C9E572640F60059F
:1006FE00E570B40F11120B43EF6008120ACFE4F548
:10070E00748029120ACFE572C3940A50A674082584
:10071E0046F8A6720546E54664097097F546120A34
:10072E00CF8090E5746005D3943C4005C28CC2A97D
:05073E0022757010227D
:10000E00E5466010154674102546F8E4F6742B2567
:05001E0046F8764022C7
:1007C300120ACF120BF675730375290B752AB8E558
:1007D3002A152AAE29700215294E601AAF45054520
:1007E300E4FD120837E545B40803E4F5457F017ECF
:1007F30000120AEE80D975290B752AB87FD07E07BF
:100803008022E52A152AAE29700215294E601AAFF7
:100813004505457D01120837E545B40803E4F54570
:100823007F017E00120AEE80D975730375743CC292
:040833008CC2A922A8
:10015B00E4F55D12046E8F7212050AE572B4100B92
:10016B00E570B41006E571B4100122E572640F60FE
:10017B000BE570640F6005E571B40F2275701012FA
:10018B000A89EF6009E4F5287571100207C3052889
:10019B007D0A7C007F207E03120974120ACFE528AA
:1001AB00B4030CE4F5281206BE75743C120ACFE5B5
:1001BB0072640E600BE570640E6005E571B40E069B
:1001CB00757010120ACFE572640D600BE570640D4B
:1001DB006005E571B40D0675701012000EE57264C2
:1001EB0065600BE570640A6005E571B465067570B2
:1001FB001012028FE5726467600BE570640B60058B
:10020B00E571B46706757010120380E572C3940A2A
:10021B00400CE570940A4006E571940A5065E5714F
:10022B006410601A74472571F8E6FF742B2546F8A5
:10023B00A60774082546F8A6717571108038E5700D
:10024B006410601A74472570F8E6FF742B2546F886
:10025B00A60774082546F8A67075701080187447A9
:10026B002572F8E6FF742B2546F8A6077408254679
:10027B00F8A6727572100546E546B40906E4F54614
:03028B00120ACF85
:01028E00224D
:0E0C170012015B7B007A00792B7D010205A0A3
:0607B900016F000169015F
:100BA700759850E4F587758BFD758DFD758920D295
:060BB700ACD2AFD28E2289
:03002300020C3993
:060C3900859970C298329B
:100BF6005389F0438901D28CD2A9D2AF758C4B753B
:030C06008AFF2240
:03000B00020A3CAA
:100A3C00C0E0C0D0758C4B758AFF056FE56FB414A0
:100A4C0013756F0015741573E574B4FF0775743C5A
:090A5C00C28CC2A9D0D0D0E03256
:090C3000D288D2A8D2AFD2B222C0
:03000300020026D2
:10002600C0E0C0F0C083C082C0D075D000C000C0A0
:0D00360001C002C003C004C005C006C00721
:10004300755800755900755A00755B00755C00752D
:10005300690030B203020140755903755AE820B2B2
:100063001EE55A455960187F017E00120C25E55A9A
:10007300155A70021559E55A455970E2020140209C
:10008300B203020128755901755AF430B21EE55ABC
:10009300455960187F017E00120C25E55A155A70E8
:1000A300021559E55A455970E2020140755B007526
:1000B3005C00755902755A5820B21DE55A455960BE
:1000C300177F017E00120C25E55A155A7002155947
:1000D300E55A455970E28065755900755A1430B276
:1000E300127F0A7E00120C250558E558D39414405C
:1000F300ED804A7465255BF8C000E6C313D000F6B3
:10010300E558C3940840097465255BF8E64480F616
:10011300755800055CE55CC394084096055BE55B98
:10012300C39404408AE568F465676011755B0074E5
:0D01330065255BF87600055BE55BB404F222
:10014000D007D006D005D004D003D002D001D00013
:0B015000D0D0D082D083D0F0D0E032BD
:080974008E5E8F5F8C608D61C7
:10097C00E4F562F562855E63855F64E5641564AEDB
:10098C0063700215634E600BB2A5AF61AE60120CC2
:10099C002580E87FC87E00120AEE0562E562C394EA
:0309AC000240D234
:0109AF002225
:1009B000E4F55DF55DAF5D1209E37418255DF8A6F9
:1009C00007055DE55DC3940840EB755D08AF5D12FA
:1009D00009E37418255DF8A607055DE55DC394106D
:0209E00040EBEA
:0109E20022F2
:100B0C00755E08755E087418255EF8E6FDAF5E121A
:0B0B1C000A13055EE55EC3941040EB79
:010B270022AB
:100B5E00E4F55EF55E7418255EF8E6FDAF5E120AEA
:0A0B6E0013055EE55EC3940840EB3A
:010B7800225A
:0307BF0001743C86
:0B0C2500EF1FAC0670011E4C70F622A1
:100AEE00D3EF9400EE940040147D6E7C00ED1D70EB
:0D0AFE00011CED4C70F7EF1F70E61E80E349
:010B0B0022C7
:03000000020632C3
:0C063200787FE4F6D8FD7581740206792B
:1008A200BB010CE58229F582E5833AF583E022500B
:1008B20006E92582F8E622BBFE06E92582F8E22255
:0D08C200E58229F582E5833AF583E493226F
:1008CF00D083D082F8E4937012740193700DA3A3B8
:1008DF0093F8740193F5828883E4737402936860CC
:0608EF00EFA3A3A380DFCC
:10063E00020C09E493A3F8E493A34003F68001F2BD
:10064E0008DFF48029E493A3F85407240CC8C333BD
:10065E00C4540F4420C8834004F456800146F6DF8C
:10066E00E4800B0102040810204080900743E47ED2
:10067E00019360BCA3FF543F30E509541FFEE49381
:10068E00A360010ECF54C025E060A840B8E493A348
:10069E00FAE493A3F8E493A3C8C582C8CAC583CA73
:1006AE00F0A3C8C582C8CAC583CADFE9DEE780BE2B
:0107C2000036
:00000001FF
